Component: ARM Compiler 5.06 (build 20) Tool: armlink [4d35a3]

==============================================================================

Section Cross References

    startup_stm32f030x8.o(RESET) refers to startup_stm32f030x8.o(STACK) for __initial_sp
    startup_stm32f030x8.o(RESET) refers to startup_stm32f030x8.o(.text) for Reset_Handler
    startup_stm32f030x8.o(RESET) refers to port.o(i.SVC_Handler) for SVC_Handler
    startup_stm32f030x8.o(RESET) refers to port.o(.emb_text) for PendSV_Handler
    startup_stm32f030x8.o(RESET) refers to stm32f0xx_it.o(i.SysTick_Handler) for SysTick_Handler
    startup_stm32f030x8.o(.text) refers to system_stm32f0xx.o(i.SystemInit) for SystemInit
    startup_stm32f030x8.o(.text) refers to entry.o(.ARM.Collect$$$$00000000) for __main
    event_groups.o(i.vEventGroupClearBitsCallback) refers to event_groups.o(i.xEventGroupClearBits) for xEventGroupClearBits
    event_groups.o(i.vEventGroupDelete) refers to tasks.o(i.vTaskSuspendAll) for vTaskSuspendAll
    event_groups.o(i.vEventGroupDelete) refers to tasks.o(i.xTaskRemoveFromUnorderedEventList) for xTaskRemoveFromUnorderedEventList
    event_groups.o(i.vEventGroupDelete) refers to heap_4.o(i.vPortFree) for vPortFree
    event_groups.o(i.vEventGroupDelete) refers to tasks.o(i.xTaskResumeAll) for xTaskResumeAll
    event_groups.o(i.vEventGroupSetBitsCallback) refers to event_groups.o(i.xEventGroupSetBits) for xEventGroupSetBits
    event_groups.o(i.xEventGroupClearBits) refers to port.o(i.vPortEnterCritical) for vPortEnterCritical
    event_groups.o(i.xEventGroupClearBits) refers to port.o(i.vPortExitCritical) for vPortExitCritical
    event_groups.o(i.xEventGroupCreate) refers to heap_4.o(i.pvPortMalloc) for pvPortMalloc
    event_groups.o(i.xEventGroupCreate) refers to list.o(i.vListInitialise) for vListInitialise
    event_groups.o(i.xEventGroupGetBitsFromISR) refers to port.o(.emb_text) for ulSetInterruptMaskFromISR
==============================================================================

Removing Unused input sections from the image.

    Removing startup_stm32f030x8.o(HEAP), (512 bytes).
    Removing event_groups.o(i.prvTestWaitCondition), (22 bytes).
    Removing event_groups.o(i.uxEventGroupGetNumber), (8 bytes).
    Removing event_groups.o(i.vEventGroupClearBitsCallback), (8 bytes).
    Removing event_groups.o(i.vEventGroupDelete), (54 bytes).
    Removing event_groups.o(i.vEventGroupSetBitsCallback), (8 bytes).
    Removing event_groups.o(i.xEventGroupClearBits), (34 bytes).
    Removing event_groups.o(i.xEventGroupCreate), (26 bytes).
    Removing event_groups.o(i.xEventGroupGetBitsFromISR), (18 bytes).
    Removing event_groups.o(i.xEventGroupSetBits), (110 bytes).
    Removing event_groups.o(i.xEventGroupSync), (164 bytes).
    Removing event_groups.o(i.xEventGroupWaitBits), (196 bytes).
    Removing port.o(i.vPortEndScheduler), (24 bytes).
    Removing tasks.o(i.prvListTaskWithinSingleList), (136 bytes).
    Removing tasks.o(i.prvTaskIsTaskSuspended), (44 bytes).
    Removing tasks.o(i.pvTaskIncrementMutexHeldCount), (24 bytes).
    Removing tasks.o(i.uxTaskGetNumberOfTasks), (12 bytes).
    Removing tasks.o(i.uxTaskGetSystemState), (136 bytes).
==============================================================================

Image Symbol Table

    Local Symbols

    Symbol Name                              Value     Ov Type        Size  Object(Section)

    ../clib/microlib/division.c              0x00000000   Number         0  uidiv.o ABSOLUTE
    ../clib/microlib/init/entry.s            0x00000000   Number         0  entry9a.o ABSOLUTE
    ../clib/microlib/init/entry.s            0x00000000   Number         0  entry10b.o ABSOLUTE
    ../clib/microlib/init/entry.s            0x00000000   Number         0  entry2.o ABSOLUTE
    ../clib/microlib/init/entry.s            0x00000000   Number         0  entry11a.o ABSOLUTE
    ../clib/microlib/init/entry.s            0x00000000   Number         0  entry11b.o ABSOLUTE
    ../clib/microlib/init/entry.s            0x00000000   Number         0  entry10a.o ABSOLUTE
    ../clib/microlib/init/entry.s            0x00000000   Number         0  entry9b.o ABSOLUTE
    ../clib/microlib/init/entry.s            0x00000000   Number         0  entry5.o ABSOLUTE
    ../clib/microlib/init/entry.s            0x00000000   Number         0  entry8b.o ABSOLUTE
    ../clib/microlib/init/entry.s            0x00000000   Number         0  entry8a.o ABSOLUTE
    ../clib/microlib/init/entry.s            0x00000000   Number         0  entry7b.o ABSOLUTE
    ../clib/microlib/init/entry.s            0x00000000   Number         0  entry7a.o ABSOLUTE
    ../clib/microlib/init/entry.s            0x00000000   Number         0  entry.o ABSOLUTE
    ../clib/microlib/longlong.c              0x00000000   Number         0  llushr.o ABSOLUTE
    ../clib/microlib/string/memcpy.c         0x00000000   Number         0  memcpyb.o ABSOLUTE
    ../clib/microlib/string/memcpy.c         0x00000000   Number         0  memcpya.o ABSOLUTE
    ../clib/microlib/string/memset.c         0x00000000   Number         0  memseta.o ABSOLUTE
    ..\Drivers\CMSIS\Device\ST\STM32F0xx\Source\Templates\arm\startup_stm32f030x8.s 0x00000000   Number         0  startup_stm32f030x8.o ABSOLUTE
    ..\Drivers\CMSIS\Device\ST\STM32F0xx\Source\Templates\system_stm32f0xx.c 0x00000000   Number         0  system_stm32f0xx.o ABSOLUTE
    ..\Drivers\STM32F0xx_HAL_Driver\Src\stm32f0xx_hal.c 0x00000000   Number         0  stm32f0xx_hal.o ABSOLUTE
    ..\Drivers\STM32F0xx_HAL_Driver\Src\stm32f0xx_hal_cortex.c 0x00000000   Number         0  stm32f0xx_hal_cortex.o ABSOLUTE
    ..\Drivers\STM32F0xx_HAL_Driver\Src\stm32f0xx_hal_dma.c 0x00000000   Number         0  stm32f0xx_hal_dma.o ABSOLUTE
    ..\Drivers\STM32F0xx_HAL_Driver\Src\stm32f0xx_hal_flash.c 0x00000000   Number         0  stm32f0xx_hal_flash.o ABSOLUTE
    ..\Drivers\STM32F0xx_HAL_Driver\Src\stm32f0xx_hal_flash_ex.c 0x00000000   Number         0  stm32f0xx_hal_flash_ex.o ABSOLUTE
    ..\Drivers\STM32F0xx_HAL_Driver\Src\stm32f0xx_hal_gpio.c 0x00000000   Number         0  stm32f0xx_hal_gpio.o ABSOLUTE
    ..\Drivers\STM32F0xx_HAL_Driver\Src\stm32f0xx_hal_pwr.c 0x00000000   Number         0  stm32f0xx_hal_pwr.o ABSOLUTE
    ..\Drivers\STM32F0xx_HAL_Driver\Src\stm32f0xx_hal_pwr_ex.c 0x00000000   Number         0  stm32f0xx_hal_pwr_ex.o ABSOLUTE
    ..\Drivers\STM32F0xx_HAL_Driver\Src\stm32f0xx_hal_rcc.c 0x00000000   Number         0  stm32f0xx_hal_rcc.o ABSOLUTE
    ..\Drivers\STM32F0xx_HAL_Driver\Src\stm32f0xx_hal_rcc_ex.c 0x00000000   Number         0  stm32f0xx_hal_rcc_ex.o ABSOLUTE
    ..\Middlewares\Third_Party\FreeRTOS\Source\CMSIS_RTOS\cmsis_os.c 0x00000000   Number         0  cmsis_os.o ABSOLUTE
    ..\Middlewares\Third_Party\FreeRTOS\Source\croutine.c 0x00000000   Number         0  croutine.o ABSOLUTE
    ..\Middlewares\Third_Party\FreeRTOS\Source\event_groups.c 0x00000000   Number         0  event_groups.o ABSOLUTE
    ..\Middlewares\Third_Party\FreeRTOS\Source\list.c 0x00000000   Number         0  list.o ABSOLUTE
    ..\Middlewares\Third_Party\FreeRTOS\Source\portable\MemMang\heap_4.c 0x00000000   Number         0  heap_4.o ABSOLUTE
    ..\Middlewares\Third_Party\FreeRTOS\Source\portable\RVDS\ARM_CM0\port.c 0x00000000   Number         0  port.o ABSOLUTE
    ..\Middlewares\Third_Party\FreeRTOS\Source\queue.c 0x00000000   Number         0  queue.o ABSOLUTE
    ..\Middlewares\Third_Party\FreeRTOS\Source\tasks.c 0x00000000   Number         0  tasks.o ABSOLUTE
    ..\Middlewares\Third_Party\FreeRTOS\Source\timers.c 0x00000000   Number         0  timers.o ABSOLUTE
    ..\Src\freertos.c                        0x00000000   Number         0  freertos.o ABSOLUTE
    ..\Src\main.c                            0x00000000   Number         0  main.o ABSOLUTE
    ..\Src\stm32f0xx_hal_msp.c               0x00000000   Number         0  stm32f0xx_hal_msp.o ABSOLUTE
    ..\Src\stm32f0xx_it.c                    0x00000000   Number         0  stm32f0xx_it.o ABSOLUTE
    ..\\Drivers\\CMSIS\\Device\\ST\\STM32F0xx\\Source\\Templates\\system_stm32f0xx.c 0x00000000   Number         0  system_stm32f0xx.o ABSOLUTE
    ..\\Drivers\\STM32F0xx_HAL_Driver\\Src\\stm32f0xx_hal.c 0x00000000   Number         0  stm32f0xx_hal.o ABSOLUTE
    ..\\Drivers\\STM32F0xx_HAL_Driver\\Src\\stm32f0xx_hal_cortex.c 0x00000000   Number         0  stm32f0xx_hal_cortex.o ABSOLUTE
    ..\\Drivers\\STM32F0xx_HAL_Driver\\Src\\stm32f0xx_hal_dma.c 0x00000000   Number         0  stm32f0xx_hal_dma.o ABSOLUTE
    ..\\Drivers\\STM32F0xx_HAL_Driver\\Src\\stm32f0xx_hal_flash.c 0x00000000   Number         0  stm32f0xx_hal_flash.o ABSOLUTE
    ..\\Drivers\\STM32F0xx_HAL_Driver\\Src\\stm32f0xx_hal_flash_ex.c 0x00000000   Number         0  stm32f0xx_hal_flash_ex.o ABSOLUTE
    ..\\Drivers\\STM32F0xx_HAL_Driver\\Src\\stm32f0xx_hal_gpio.c 0x00000000   Number         0  stm32f0xx_hal_gpio.o ABSOLUTE
    ..\\Drivers\\STM32F0xx_HAL_Driver\\Src\\stm32f0xx_hal_pwr.c 0x00000000   Number         0  stm32f0xx_hal_pwr.o ABSOLUTE
    ..\\Drivers\\STM32F0xx_HAL_Driver\\Src\\stm32f0xx_hal_pwr_ex.c 0x00000000   Number         0  stm32f0xx_hal_pwr_ex.o ABSOLUTE
    ..\\Drivers\\STM32F0xx_HAL_Driver\\Src\\stm32f0xx_hal_rcc.c 0x00000000   Number         0  stm32f0xx_hal_rcc.o ABSOLUTE
    ..\\Drivers\\STM32F0xx_HAL_Driver\\Src\\stm32f0xx_hal_rcc_ex.c 0x00000000   Number         0  stm32f0xx_hal_rcc_ex.o ABSOLUTE
    ..\\Middlewares\\Third_Party\\FreeRTOS\\Source\\portable\\RVDS\\ARM_CM0\\port.c 0x00000000   Number         0  port.o ABSOLUTE
    ..\\Src\\main.c                          0x00000000   Number         0  main.o ABSOLUTE
    ..\\Src\\stm32f0xx_hal_msp.c             0x00000000   Number         0  stm32f0xx_hal_msp.o ABSOLUTE
    ..\\Src\\stm32f0xx_it.c                  0x00000000   Number         0  stm32f0xx_it.o ABSOLUTE
    dc.s                                     0x00000000   Number         0  dc.o ABSOLUTE
    handlers.s                               0x00000000   Number         0  handlers.o ABSOLUTE
    init.s                                   0x00000000   Number         0  init.o ABSOLUTE
    RESET                                    0x08000000   Section      180  startup_stm32f030x8.o(RESET)
    .ARM.Collect$$$$00000000                 0x080000b4   Section        0  entry.o(.ARM.Collect$$$$00000000)
    .ARM.Collect$$$$00000001                 0x080000b4   Section        4  entry2.o(.ARM.Collect$$$$00000001)
    .ARM.Collect$$$$00000004                 0x080000b8   Section        4  entry5.o(.ARM.Collect$$$$00000004)
    .ARM.Collect$$$$00000008                 0x080000bc   Section        0  entry7b.o(.ARM.Collect$$$$00000008)
    .ARM.Collect$$$$0000000A                 0x080000bc   Section        0  entry8b.o(.ARM.Collect$$$$0000000A)
    .ARM.Collect$$$$0000000B                 0x080000bc   Section        8  entry9a.o(.ARM.Collect$$$$0000000B)
    .ARM.Collect$$$$0000000D                 0x080000c4   Section        0  entry10a.o(.ARM.Collect$$$$0000000D)
    .ARM.Collect$$$$0000000F                 0x080000c4   Section        0  entry11a.o(.ARM.Collect$$$$0000000F)
    .ARM.Collect$$$$00002712                 0x080000c4   Section        4  entry2.o(.ARM.Collect$$$$00002712)
    __lit__00000000                          0x080000c4   Data           4  entry2.o(.ARM.Collect$$$$00002712)
    .emb_text                                0x080000c8   Section      112  port.o(.emb_text)
    .text                                    0x08000138   Section       28  startup_stm32f030x8.o(.text)
    .text                                    0x08000154   Section        0  uidiv.o(.text)
    .text                                    0x08000180   Section        0  memcpya.o(.text)
    .text                                    0x080001a4   Section        0  memseta.o(.text)
    .text                                    0x080001c8   Section       36  init.o(.text)
    i.HAL_GPIO_Init                          0x080001ec   Section        0  stm32f0xx_hal_gpio.o(i.HAL_GPIO_Init)
    i.HAL_GPIO_WritePin                      0x08000330   Section        0  stm32f0xx_hal_gpio.o(i.HAL_GPIO_WritePin)
    i.HAL_GetTick                            0x0800033c   Section        0  stm32f0xx_hal.o(i.HAL_GetTick)
    i.HAL_IncTick                            0x08000348   Section        0  stm32f0xx_hal.o(i.HAL_IncTick)
    i.HAL_Init                               0x08000358   Section        0  stm32f0xx_hal.o(i.HAL_Init)
    i.HAL_InitTick                           0x08000378   Section        0  stm32f0xx_hal.o(i.HAL_InitTick)
    i.HAL_MspInit                            0x0800039c   Section        0  stm32f0xx_hal_msp.o(i.HAL_MspInit)
    i.HAL_NVIC_SetPriority                   0x080003b8   Section        0  stm32f0xx_hal_cortex.o(i.HAL_NVIC_SetPriority)
    i.HAL_RCC_ClockConfig                    0x080003c0   Section        0  stm32f0xx_hal_rcc_ex.o(i.HAL_RCC_ClockConfig)
    i.HAL_RCC_GetHCLKFreq                    0x0800055c   Section        0  stm32f0xx_hal_rcc.o(i.HAL_RCC_GetHCLKFreq)
    i.HAL_RCC_GetSysClockFreq                0x08000584   Section        0  stm32f0xx_hal_rcc_ex.o(i.HAL_RCC_GetSysClockFreq)
    i.HAL_RCC_OscConfig                      0x080005d0   Section        0  stm32f0xx_hal_rcc_ex.o(i.HAL_RCC_OscConfig)
    i.HAL_SYSTICK_CLKSourceConfig            0x080008ec   Section        0  stm32f0xx_hal_cortex.o(i.HAL_SYSTICK_CLKSourceConfig)
    i.HAL_SYSTICK_Config                     0x08000904   Section        0  stm32f0xx_hal_cortex.o(i.HAL_SYSTICK_Config)
    i.NVIC_SetPriority                       0x08000934   Section        0  stm32f0xx_hal_cortex.o(i.NVIC_SetPriority)
    NVIC_SetPriority                         0x08000935   Thumb Code    60  stm32f0xx_hal_cortex.o(i.NVIC_SetPriority)
    i.SVC_Handler                            0x08000978   Section        0  port.o(i.SVC_Handler)
    i.StartDefaultTask                       0x0800097c   Section        0  main.o(i.StartDefaultTask)
    i.SysTick_Handler                        0x08000a14   Section        0  stm32f0xx_it.o(i.SysTick_Handler)
    i.SystemClock_Config                     0x08000a20   Section        0  main.o(i.SystemClock_Config)
    i.SystemInit                             0x08000a64   Section        0  system_stm32f0xx.o(i.SystemInit)
    i.__scatterload_copy                     0x08000ac0   Section       14  handlers.o(i.__scatterload_copy)
    i.__scatterload_null                     0x08000ace   Section        2  handlers.o(i.__scatterload_null)
    i.__scatterload_zeroinit                 0x08000ad0   Section       14  handlers.o(i.__scatterload_zeroinit)
    i.main                                   0x08000ae0   Section        0  main.o(i.main)
    i.makeFreeRtosPriority                   0x08000b3c   Section        0  cmsis_os.o(i.makeFreeRtosPriority)
    makeFreeRtosPriority                     0x08000b3d   Thumb Code    12  cmsis_os.o(i.makeFreeRtosPriority)
    i.osDelay                                0x08000b48   Section        0  cmsis_os.o(i.osDelay)
    i.osKernelStart                          0x08000b58   Section        0  cmsis_os.o(i.osKernelStart)
    i.osSystickHandler                       0x08000b62   Section        0  cmsis_os.o(i.osSystickHandler)
    i.osThreadCreate                         0x08000b72   Section        0  cmsis_os.o(i.osThreadCreate)
    i.prvAddCurrentTaskToDelayedList         0x08000bac   Section        0  tasks.o(i.prvAddCurrentTaskToDelayedList)
    prvAddCurrentTaskToDelayedList           0x08000bad   Thumb Code    46  tasks.o(i.prvAddCurrentTaskToDelayedList)
    i.prvCheckTasksWaitingTermination        0x08000be0   Section        0  tasks.o(i.prvCheckTasksWaitingTermination)
    prvCheckTasksWaitingTermination          0x08000be1   Thumb Code    78  tasks.o(i.prvCheckTasksWaitingTermination)
    i.prvHeapInit                            0x08000c38   Section        0  heap_4.o(i.prvHeapInit)
    prvHeapInit                              0x08000c39   Thumb Code    60  heap_4.o(i.prvHeapInit)
    i.prvIdleTask                            0x08000c7c   Section        0  tasks.o(i.prvIdleTask)
    prvIdleTask                              0x08000c7d   Thumb Code    18  tasks.o(i.prvIdleTask)
    i.prvInsertBlockIntoFreeList             0x08000c94   Section        0  heap_4.o(i.prvInsertBlockIntoFreeList)
    prvInsertBlockIntoFreeList               0x08000c95   Thumb Code    72  heap_4.o(i.prvInsertBlockIntoFreeList)
    i.prvResetNextTaskUnblockTime            0x08000ce0   Section        0  tasks.o(i.prvResetNextTaskUnblockTime)
    prvResetNextTaskUnblockTime              0x08000ce1   Thumb Code    28  tasks.o(i.prvResetNextTaskUnblockTime)
    i.prvTaskExitError                       0x08000d00   Section        0  port.o(i.prvTaskExitError)
    prvTaskExitError                         0x08000d01   Thumb Code    14  port.o(i.prvTaskExitError)
    i.pvPortMalloc                           0x08000d14   Section        0  heap_4.o(i.pvPortMalloc)
    i.pxPortInitialiseStack                  0x08000dc4   Section        0  port.o(i.pxPortInitialiseStack)
    i.uxListRemove                           0x08000de4   Section        0  list.o(i.uxListRemove)
    i.vListInitialise                        0x08000e08   Section        0  list.o(i.vListInitialise)
    i.vListInitialiseItem                    0x08000e1e   Section        0  list.o(i.vListInitialiseItem)
    i.vListInsert                            0x08000e24   Section        0  list.o(i.vListInsert)
    i.vListInsertEnd                         0x08000e54   Section        0  list.o(i.vListInsertEnd)
    i.vPortEnterCritical                     0x08000e6c   Section        0  port.o(i.vPortEnterCritical)
    i.vPortExitCritical                      0x08000e84   Section        0  port.o(i.vPortExitCritical)
    i.vPortFree                              0x08000ea0   Section        0  heap_4.o(i.vPortFree)
    i.vPortYield                             0x08000ee4   Section        0  port.o(i.vPortYield)
    i.vTaskDelay                             0x08000efc   Section        0  tasks.o(i.vTaskDelay)
    i.vTaskStartScheduler                    0x08000f38   Section        0  tasks.o(i.vTaskStartScheduler)
    i.vTaskSuspendAll                        0x08000f7c   Section        0  tasks.o(i.vTaskSuspendAll)
    i.vTaskSwitchContext                     0x08000f8c   Section        0  tasks.o(i.vTaskSwitchContext)
    i.xPortStartScheduler                    0x08000fe4   Section        0  port.o(i.xPortStartScheduler)
    i.xPortSysTickHandler                    0x08001030   Section        0  port.o(i.xPortSysTickHandler)
    i.xTaskGenericCreate                     0x08001054   Section        0  tasks.o(i.xTaskGenericCreate)
    i.xTaskGetSchedulerState                 0x080011c8   Section        0  tasks.o(i.xTaskGetSchedulerState)
    i.xTaskIncrementTick                     0x080011e8   Section        0  tasks.o(i.xTaskIncrementTick)
    i.xTaskResumeAll                         0x080012a8   Section        0  tasks.o(i.xTaskResumeAll)
    .constdata                               0x08001350   Section       32  stm32f0xx_hal_rcc_ex.o(.constdata)
    .constdata                               0x08001370   Section       16  stm32f0xx_hal_rcc.o(.constdata)
    .constdata                               0x08001380   Section       20  main.o(.constdata)
    .conststring                             0x08001394   Section       12  main.o(.conststring)
    .data                                    0x20000000   Section        4  port.o(.data)
    uxCriticalNesting                        0x20000000   Data           4  port.o(.data)
    .data                                    0x20000004   Section       56  tasks.o(.data)
    uxTasksDeleted                           0x20000008   Data           4  tasks.o(.data)
    uxCurrentNumberOfTasks                   0x2000000c   Data           4  tasks.o(.data)
    xTickCount                               0x20000010   Data           4  tasks.o(.data)
    uxTopReadyPriority                       0x20000014   Data           4  tasks.o(.data)
    xSchedulerRunning                        0x20000018   Data           4  tasks.o(.data)
    uxPendedTicks                            0x2000001c   Data           4  tasks.o(.data)
    xYieldPending                            0x20000020   Data           4  tasks.o(.data)
    xNumOfOverflows                          0x20000024   Data           4  tasks.o(.data)
    uxTaskNumber                             0x20000028   Data           4  tasks.o(.data)
    xNextTaskUnblockTime                     0x2000002c   Data           4  tasks.o(.data)
    uxSchedulerSuspended                     0x20000030   Data           4  tasks.o(.data)
    pxDelayedTaskList                        0x20000034   Data           4  tasks.o(.data)
    pxOverflowDelayedTaskList                0x20000038   Data           4  tasks.o(.data)
    .data                                    0x2000003c   Section       24  heap_4.o(.data)
    pxEnd                                    0x2000003c   Data           4  heap_4.o(.data)
    xFreeBytesRemaining                      0x20000040   Data           4  heap_4.o(.data)
    xMinimumEverFreeBytesRemaining           0x20000044   Data           4  heap_4.o(.data)
    xBlockAllocatedBit                       0x20000048   Data           4  heap_4.o(.data)
    xStart                                   0x2000004c   Data           8  heap_4.o(.data)
    .data                                    0x20000054   Section       20  system_stm32f0xx.o(.data)
    .data                                    0x20000068   Section        4  stm32f0xx_hal.o(.data)
    uwTick                                   0x20000068   Data           4  stm32f0xx_hal.o(.data)
    .data                                    0x2000006c   Section        4  main.o(.data)
    .bss                                     0x20000070   Section      240  tasks.o(.bss)
    pxReadyTasksLists                        0x20000070   Data         140  tasks.o(.bss)
    xDelayedTaskList1                        0x200000fc   Data          20  tasks.o(.bss)
    xDelayedTaskList2                        0x20000110   Data          20  tasks.o(.bss)
    xPendingReadyList                        0x20000124   Data          20  tasks.o(.bss)
    xTasksWaitingTermination                 0x20000138   Data          20  tasks.o(.bss)
    xSuspendedTaskList                       0x2000014c   Data          20  tasks.o(.bss)
    .bss                                     0x20000160   Section     3072  heap_4.o(.bss)
    ucHeap                                   0x20000160   Data        3072  heap_4.o(.bss)
    STACK                                    0x20000d60   Section     1024  startup_stm32f030x8.o(STACK)

    Global Symbols

    Symbol Name                              Value     Ov Type        Size  Object(Section)

    BuildAttributes$$THM_ISAv3M$S$PE$A:L22$X:L11$S22$IEEE1$IW$USESV6$~STKCKD$USESV7$~SHL$OSPACE$EBA8$MICROLIB$REQ8$PRES8$EABIv2 0x00000000   Number         0  anon$$obj.o ABSOLUTE
    __ARM_use_no_argv                        0x00000000   Number         0  main.o ABSOLUTE
    __cpp_initialize__aeabi_                  - Undefined Weak Reference
    __cxa_finalize                            - Undefined Weak Reference
    __decompress                              - Undefined Weak Reference
    _clock_init                               - Undefined Weak Reference
    _microlib_exit                            - Undefined Weak Reference
    __Vectors_Size                           0x000000b4   Number         0  startup_stm32f030x8.o ABSOLUTE
    __Vectors                                0x08000000   Data           4  startup_stm32f030x8.o(RESET)
    __Vectors_End                            0x080000b4   Data           0  startup_stm32f030x8.o(RESET)
    __main                                   0x080000b5   Thumb Code     0  entry.o(.ARM.Collect$$$$00000000)
    _main_stk                                0x080000b5   Thumb Code     0  entry2.o(.ARM.Collect$$$$00000001)
    _main_scatterload                        0x080000b9   Thumb Code     0  entry5.o(.ARM.Collect$$$$00000004)
    __main_after_scatterload                 0x080000bd   Thumb Code     0  entry5.o(.ARM.Collect$$$$00000004)
    _main_clock                              0x080000bd   Thumb Code     0  entry7b.o(.ARM.Collect$$$$00000008)
    _main_cpp_init                           0x080000bd   Thumb Code     0  entry8b.o(.ARM.Collect$$$$0000000A)
    _main_init                               0x080000bd   Thumb Code     0  entry9a.o(.ARM.Collect$$$$0000000B)
    __rt_final_cpp                           0x080000c5   Thumb Code     0  entry10a.o(.ARM.Collect$$$$0000000D)
    __rt_final_exit                          0x080000c5   Thumb Code     0  entry11a.o(.ARM.Collect$$$$0000000F)
    __asm___6_port_c_39a90d8d__prvPortStartFirstTask 0x080000c9   Thumb Code    28  port.o(.emb_text)
    ulSetInterruptMaskFromISR                0x080000e9   Thumb Code     8  port.o(.emb_text)
    vClearInterruptMaskFromISR               0x080000f1   Thumb Code     6  port.o(.emb_text)
    PendSV_Handler                           0x080000f7   Thumb Code    62  port.o(.emb_text)
    Reset_Handler                            0x08000139   Thumb Code     8  startup_stm32f030x8.o(.text)
    NMI_Handler                              0x08000141   Thumb Code     2  startup_stm32f030x8.o(.text)
    HardFault_Handler                        0x08000143   Thumb Code     2  startup_stm32f030x8.o(.text)
    ADC1_IRQHandler                          0x0800014b   Thumb Code     0  startup_stm32f030x8.o(.text)
    DMA1_Channel1_IRQHandler                 0x0800014b   Thumb Code     0  startup_stm32f030x8.o(.text)
    DMA1_Channel2_3_IRQHandler               0x0800014b   Thumb Code     0  startup_stm32f030x8.o(.text)
    DMA1_Channel4_5_IRQHandler               0x0800014b   Thumb Code     0  startup_stm32f030x8.o(.text)
    EXTI0_1_IRQHandler                       0x0800014b   Thumb Code     0  startup_stm32f030x8.o(.text)
    EXTI2_3_IRQHandler                       0x0800014b   Thumb Code     0  startup_stm32f030x8.o(.text)
    EXTI4_15_IRQHandler                      0x0800014b   Thumb Code     0  startup_stm32f030x8.o(.text)
    FLASH_IRQHandler                         0x0800014b   Thumb Code     0  startup_stm32f030x8.o(.text)
    I2C1_IRQHandler                          0x0800014b   Thumb Code     0  startup_stm32f030x8.o(.text)
    I2C2_IRQHandler                          0x0800014b   Thumb Code     0  startup_stm32f030x8.o(.text)
    RCC_IRQHandler                           0x0800014b   Thumb Code     0  startup_stm32f030x8.o(.text)
    RTC_IRQHandler                           0x0800014b   Thumb Code     0  startup_stm32f030x8.o(.text)
    SPI1_IRQHandler                          0x0800014b   Thumb Code     0  startup_stm32f030x8.o(.text)
    SPI2_IRQHandler                          0x0800014b   Thumb Code     0  startup_stm32f030x8.o(.text)
    TIM14_IRQHandler                         0x0800014b   Thumb Code     0  startup_stm32f030x8.o(.text)
    TIM15_IRQHandler                         0x0800014b   Thumb Code     0  startup_stm32f030x8.o(.text)
    TIM16_IRQHandler                         0x0800014b   Thumb Code     0  startup_stm32f030x8.o(.text)
    TIM17_IRQHandler                         0x0800014b   Thumb Code     0  startup_stm32f030x8.o(.text)
    TIM1_BRK_UP_TRG_COM_IRQHandler           0x0800014b   Thumb Code     0  startup_stm32f030x8.o(.text)
    TIM1_CC_IRQHandler                       0x0800014b   Thumb Code     0  startup_stm32f030x8.o(.text)
    TIM3_IRQHandler                          0x0800014b   Thumb Code     0  startup_stm32f030x8.o(.text)
    USART1_IRQHandler                        0x0800014b   Thumb Code     0  startup_stm32f030x8.o(.text)
    USART2_IRQHandler                        0x0800014b   Thumb Code     0  startup_stm32f030x8.o(.text)
    WWDG_IRQHandler                          0x0800014b   Thumb Code     0  startup_stm32f030x8.o(.text)
    __aeabi_uidiv                            0x08000155   Thumb Code     0  uidiv.o(.text)
    __aeabi_uidivmod                         0x08000155   Thumb Code    44  uidiv.o(.text)
    __aeabi_memcpy                           0x08000181   Thumb Code    36  memcpya.o(.text)
    __aeabi_memcpy4                          0x08000181   Thumb Code     0  memcpya.o(.text)
    __aeabi_memcpy8                          0x08000181   Thumb Code     0  memcpya.o(.text)
    __aeabi_memset                           0x080001a5   Thumb Code    14  memseta.o(.text)
    __aeabi_memset4                          0x080001a5   Thumb Code     0  memseta.o(.text)
    __aeabi_memset8                          0x080001a5   Thumb Code     0  memseta.o(.text)
    __aeabi_memclr                           0x080001b3   Thumb Code     4  memseta.o(.text)
    __aeabi_memclr4                          0x080001b3   Thumb Code     0  memseta.o(.text)
    __aeabi_memclr8                          0x080001b3   Thumb Code     0  memseta.o(.text)
    _memset$wrapper                          0x080001b7   Thumb Code    18  memseta.o(.text)
    __scatterload                            0x080001c9   Thumb Code    28  init.o(.text)
    __scatterload_rt2                        0x080001c9   Thumb Code     0  init.o(.text)
    HAL_GPIO_Init                            0x080001ed   Thumb Code   298  stm32f0xx_hal_gpio.o(i.HAL_GPIO_Init)
    HAL_GPIO_WritePin                        0x08000331   Thumb Code    12  stm32f0xx_hal_gpio.o(i.HAL_GPIO_WritePin)
    HAL_GetTick                              0x0800033d   Thumb Code     6  stm32f0xx_hal.o(i.HAL_GetTick)
    HAL_IncTick                              0x08000349   Thumb Code    10  stm32f0xx_hal.o(i.HAL_IncTick)
    HAL_Init                                 0x08000359   Thumb Code    26  stm32f0xx_hal.o(i.HAL_Init)
    HAL_InitTick                             0x08000379   Thumb Code    34  stm32f0xx_hal.o(i.HAL_InitTick)
    HAL_MspInit                              0x0800039d   Thumb Code    24  stm32f0xx_hal_msp.o(i.HAL_MspInit)
    HAL_NVIC_SetPriority                     0x080003b9   Thumb Code     8  stm32f0xx_hal_cortex.o(i.HAL_NVIC_SetPriority)
    HAL_RCC_ClockConfig                      0x080003c1   Thumb Code   400  stm32f0xx_hal_rcc_ex.o(i.HAL_RCC_ClockConfig)
    HAL_RCC_GetHCLKFreq                      0x0800055d   Thumb Code    26  stm32f0xx_hal_rcc.o(i.HAL_RCC_GetHCLKFreq)
    HAL_RCC_GetSysClockFreq                  0x08000585   Thumb Code    60  stm32f0xx_hal_rcc_ex.o(i.HAL_RCC_GetSysClockFreq)
    HAL_RCC_OscConfig                        0x080005d1   Thumb Code   784  stm32f0xx_hal_rcc_ex.o(i.HAL_RCC_OscConfig)
    HAL_SYSTICK_CLKSourceConfig              0x080008ed   Thumb Code    20  stm32f0xx_hal_cortex.o(i.HAL_SYSTICK_CLKSourceConfig)
    HAL_SYSTICK_Config                       0x08000905   Thumb Code    38  stm32f0xx_hal_cortex.o(i.HAL_SYSTICK_Config)
    SVC_Handler                              0x08000979   Thumb Code     2  port.o(i.SVC_Handler)
    StartDefaultTask                         0x0800097d   Thumb Code   146  main.o(i.StartDefaultTask)
    SysTick_Handler                          0x08000a15   Thumb Code    12  stm32f0xx_it.o(i.SysTick_Handler)
    SystemClock_Config                       0x08000a21   Thumb Code    68  main.o(i.SystemClock_Config)
    SystemInit                               0x08000a65   Thumb Code    78  system_stm32f0xx.o(i.SystemInit)
    __scatterload_copy                       0x08000ac1   Thumb Code    14  handlers.o(i.__scatterload_copy)
    __scatterload_null                       0x08000acf   Thumb Code     2  handlers.o(i.__scatterload_null)
    __scatterload_zeroinit                   0x08000ad1   Thumb Code    14  handlers.o(i.__scatterload_zeroinit)
    main                                     0x08000ae1   Thumb Code    74  main.o(i.main)
    osDelay                                  0x08000b49   Thumb Code    16  cmsis_os.o(i.osDelay)
    osKernelStart                            0x08000b59   Thumb Code    10  cmsis_os.o(i.osKernelStart)
    osSystickHandler                         0x08000b63   Thumb Code    16  cmsis_os.o(i.osSystickHandler)
    osThreadCreate                           0x08000b73   Thumb Code    56  cmsis_os.o(i.osThreadCreate)
    pvPortMalloc                             0x08000d15   Thumb Code   172  heap_4.o(i.pvPortMalloc)
    pxPortInitialiseStack                    0x08000dc5   Thumb Code    28  port.o(i.pxPortInitialiseStack)
    uxListRemove                             0x08000de5   Thumb Code    36  list.o(i.uxListRemove)
    vListInitialise                          0x08000e09   Thumb Code    22  list.o(i.vListInitialise)
    vListInitialiseItem                      0x08000e1f   Thumb Code     6  list.o(i.vListInitialiseItem)
    vListInsert                              0x08000e25   Thumb Code    48  list.o(i.vListInsert)
    vListInsertEnd                           0x08000e55   Thumb Code    24  list.o(i.vListInsertEnd)
    vPortEnterCritical                       0x08000e6d   Thumb Code    20  port.o(i.vPortEnterCritical)
    vPortExitCritical                        0x08000e85   Thumb Code    22  port.o(i.vPortExitCritical)
    vPortFree                                0x08000ea1   Thumb Code    62  heap_4.o(i.vPortFree)
    vPortYield                               0x08000ee5   Thumb Code    18  port.o(i.vPortYield)
    vTaskDelay                               0x08000efd   Thumb Code    54  tasks.o(i.vTaskDelay)
    vTaskStartScheduler                      0x08000f39   Thumb Code    52  tasks.o(i.vTaskStartScheduler)
    vTaskSuspendAll                          0x08000f7d   Thumb Code    10  tasks.o(i.vTaskSuspendAll)
    vTaskSwitchContext                       0x08000f8d   Thumb Code    78  tasks.o(i.vTaskSwitchContext)
    xPortStartScheduler                      0x08000fe5   Thumb Code    58  port.o(i.xPortStartScheduler)
    xPortSysTickHandler                      0x08001031   Thumb Code    32  port.o(i.xPortSysTickHandler)
    xTaskGenericCreate                       0x08001055   Thumb Code   364  tasks.o(i.xTaskGenericCreate)
    xTaskGetSchedulerState                   0x080011c9   Thumb Code    26  tasks.o(i.xTaskGetSchedulerState)
    xTaskIncrementTick                       0x080011e9   Thumb Code   184  tasks.o(i.xTaskIncrementTick)
    xTaskResumeAll                           0x080012a9   Thumb Code   160  tasks.o(i.xTaskResumeAll)
    PLLMULFactorTable                        0x08001350   Data          16  stm32f0xx_hal_rcc_ex.o(.constdata)
    PredivFactorTable                        0x08001360   Data          16  stm32f0xx_hal_rcc_ex.o(.constdata)
    APBAHBPrescTable                         0x08001370   Data          16  stm32f0xx_hal_rcc.o(.constdata)
    Region$$Table$$Base                      0x080013a0   Number         0  anon$$obj.o(Region$$Table)
    Region$$Table$$Limit                     0x080013c0   Number         0  anon$$obj.o(Region$$Table)
    pxCurrentTCB                             0x20000004   Data           4  tasks.o(.data)
    SystemCoreClock                          0x20000054   Data           4  system_stm32f0xx.o(.data)
    AHBPrescTable                            0x20000058   Data          16  system_stm32f0xx.o(.data)
    defaultTaskHandle                        0x2000006c   Data           4  main.o(.data)
    __initial_sp                             0x20001160   Data           0  startup_stm32f030x8.o(STACK)



==============================================================================

Memory Map of the image

  Image Entry point : 0x080000b5

  Load Region LR_IROM1 (Base: 0x08000000, Size: 0x00001430, Max: 0x00010000, ABSOLUTE)

    Execution Region ER_IROM1 (Base: 0x08000000, Size: 0x000013c0, Max: 0x00010000, ABSOLUTE)

    Base Addr    Size         Type   Attr      Idx    E Section Name        Object

    0x08000000   0x000000b4   Data   RO            3    RESET               startup_stm32f030x8.o
    0x080000b4   0x00000000   Code   RO         1979  * .ARM.Collect$$$$00000000  mc_p.l(entry.o)
    0x080000b4   0x00000004   Code   RO         1992    .ARM.Collect$$$$00000001  mc_p.l(entry2.o)
    0x080000b8   0x00000004   Code   RO         1995    .ARM.Collect$$$$00000004  mc_p.l(entry5.o)
    0x080000bc   0x00000000   Code   RO         1997    .ARM.Collect$$$$00000008  mc_p.l(entry7b.o)
    0x080000bc   0x00000000   Code   RO         1999    .ARM.Collect$$$$0000000A  mc_p.l(entry8b.o)
    0x080000bc   0x00000008   Code   RO         2000    .ARM.Collect$$$$0000000B  mc_p.l(entry9a.o)
    0x080000c4   0x00000000   Code   RO         2002    .ARM.Collect$$$$0000000D  mc_p.l(entry10a.o)
    0x080000c4   0x00000000   Code   RO         2004    .ARM.Collect$$$$0000000F  mc_p.l(entry11a.o)
    0x080000c4   0x00000004   Code   RO         1993    .ARM.Collect$$$$00002712  mc_p.l(entry2.o)
    0x080000c8   0x00000070   Code   RO          122    .emb_text           port.o
    0x08000138   0x0000001c   Code   RO            4    .text               startup_stm32f030x8.o
    0x08000154   0x0000002c   Code   RO         1982    .text               mc_p.l(uidiv.o)
    0x08000180   0x00000024   Code   RO         1986    .text               mc_p.l(memcpya.o)
    0x080001a4   0x00000024   Code   RO         1988    .text               mc_p.l(memseta.o)
    0x080001c8   0x00000024   Code   RO         2006    .text               mc_p.l(init.o)
    0x080001ec   0x00000144   Code   RO         1132    i.HAL_GPIO_Init     stm32f0xx_hal_gpio.o
    0x08000330   0x0000000c   Code   RO         1136    i.HAL_GPIO_WritePin  stm32f0xx_hal_gpio.o
    0x0800033c   0x0000000c   Code   RO         1371    i.HAL_GetTick       stm32f0xx_hal.o
    0x08000348   0x00000010   Code   RO         1372    i.HAL_IncTick       stm32f0xx_hal.o
    0x08000358   0x00000020   Code   RO         1373    i.HAL_Init          stm32f0xx_hal.o
    0x08000378   0x00000022   Code   RO         1374    i.HAL_InitTick      stm32f0xx_hal.o
    0x0800039a   0x00000002   PAD
    0x0800039c   0x0000001c   Code   RO         1955    i.HAL_MspInit       stm32f0xx_hal_msp.o
    0x080003b8   0x00000008   Code   RO         1201    i.HAL_NVIC_SetPriority  stm32f0xx_hal_cortex.o
    0x080003c0   0x0000019c   Code   RO         1541    i.HAL_RCC_ClockConfig  stm32f0xx_hal_rcc_ex.o
    0x0800055c   0x00000028   Code   RO         1592    i.HAL_RCC_GetHCLKFreq  stm32f0xx_hal_rcc.o
    0x08000584   0x0000004c   Code   RO         1542    i.HAL_RCC_GetSysClockFreq  stm32f0xx_hal_rcc_ex.o
    0x080005d0   0x0000031c   Code   RO         1543    i.HAL_RCC_OscConfig  stm32f0xx_hal_rcc_ex.o
    0x080008ec   0x00000018   Code   RO         1203    i.HAL_SYSTICK_CLKSourceConfig  stm32f0xx_hal_cortex.o
    0x08000904   0x00000030   Code   RO         1205    i.HAL_SYSTICK_Config  stm32f0xx_hal_cortex.o
    0x08000934   0x00000044   Code   RO         1207    i.NVIC_SetPriority  stm32f0xx_hal_cortex.o
    0x08000978   0x00000002   Code   RO          123    i.SVC_Handler       port.o
    0x0800097a   0x00000002   PAD
    0x0800097c   0x00000098   Code   RO         1886    i.StartDefaultTask  main.o
    0x08000a14   0x0000000c   Code   RO         1932    i.SysTick_Handler   stm32f0xx_it.o
    0x08000a20   0x00000044   Code   RO         1887    i.SystemClock_Config  main.o
    0x08000a64   0x0000005c   Code   RO         1041    i.SystemInit        system_stm32f0xx.o
    0x08000ac0   0x0000000e   Code   RO         2010    i.__scatterload_copy  mc_p.l(handlers.o)
    0x08000ace   0x00000002   Code   RO         2011    i.__scatterload_null  mc_p.l(handlers.o)
    0x08000ad0   0x0000000e   Code   RO         2012    i.__scatterload_zeroinit  mc_p.l(handlers.o)
    0x08000ade   0x00000002   PAD
    0x08000ae0   0x0000005c   Code   RO         1888    i.main              main.o
    0x08000b3c   0x0000000c   Code   RO          651    i.makeFreeRtosPriority  cmsis_os.o
    0x08000b48   0x00000010   Code   RO          652    i.osDelay           cmsis_os.o
    0x08000b58   0x0000000a   Code   RO          655    i.osKernelStart     cmsis_os.o
    0x08000b62   0x00000010   Code   RO          682    i.osSystickHandler  cmsis_os.o
    0x08000b72   0x00000038   Code   RO          683    i.osThreadCreate    cmsis_os.o
    0x08000baa   0x00000002   PAD
    0x08000bac   0x00000034   Code   RO          202    i.prvAddCurrentTaskToDelayedList  tasks.o
    0x08000be0   0x00000058   Code   RO          203    i.prvCheckTasksWaitingTermination  tasks.o
    0x08000c38   0x00000044   Code   RO          445    i.prvHeapInit       heap_4.o
    0x08000c7c   0x00000018   Code   RO          204    i.prvIdleTask       tasks.o
    0x08000c94   0x0000004c   Code   RO          446    i.prvInsertBlockIntoFreeList  heap_4.o
    0x08000ce0   0x00000020   Code   RO          206    i.prvResetNextTaskUnblockTime  tasks.o
    0x08000d00   0x00000014   Code   RO          124    i.prvTaskExitError  port.o
    0x08000d14   0x000000b0   Code   RO          447    i.pvPortMalloc      heap_4.o
    0x08000dc4   0x00000020   Code   RO          125    i.pxPortInitialiseStack  port.o
    0x08000de4   0x00000024   Code   RO          960    i.uxListRemove      list.o
    0x08000e08   0x00000016   Code   RO          961    i.vListInitialise   list.o
    0x08000e1e   0x00000006   Code   RO          962    i.vListInitialiseItem  list.o
    0x08000e24   0x00000030   Code   RO          963    i.vListInsert       list.o
    0x08000e54   0x00000018   Code   RO          964    i.vListInsertEnd    list.o
    0x08000e6c   0x00000018   Code   RO          127    i.vPortEnterCritical  port.o
    0x08000e84   0x0000001c   Code   RO          128    i.vPortExitCritical  port.o
    0x08000ea0   0x00000044   Code   RO          448    i.vPortFree         heap_4.o
    0x08000ee4   0x00000018   Code   RO          129    i.vPortYield        port.o
    0x08000efc   0x0000003c   Code   RO          214    i.vTaskDelay        tasks.o
    0x08000f38   0x00000044   Code   RO          225    i.vTaskStartScheduler  tasks.o
    0x08000f7c   0x00000010   Code   RO          227    i.vTaskSuspendAll   tasks.o
    0x08000f8c   0x00000058   Code   RO          228    i.vTaskSwitchContext  tasks.o
    0x08000fe4   0x0000004c   Code   RO          130    i.xPortStartScheduler  port.o
    0x08001030   0x00000024   Code   RO          131    i.xPortSysTickHandler  port.o
    0x08001054   0x00000174   Code   RO          230    i.xTaskGenericCreate  tasks.o
    0x080011c8   0x00000020   Code   RO          232    i.xTaskGetSchedulerState  tasks.o
    0x080011e8   0x000000c0   Code   RO          235    i.xTaskIncrementTick  tasks.o
    0x080012a8   0x000000a8   Code   RO          239    i.xTaskResumeAll    tasks.o
    0x08001350   0x00000020   Data   RO         1544    .constdata          stm32f0xx_hal_rcc_ex.o
    0x08001370   0x00000010   Data   RO         1599    .constdata          stm32f0xx_hal_rcc.o
    0x08001380   0x00000014   Data   RO         1889    .constdata          main.o
    0x08001394   0x0000000c   Data   RO         1890    .conststring        main.o
    0x080013a0   0x00000020   Data   RO         2008    Region$$Table       anon$$obj.o


    Execution Region RW_IRAM1 (Base: 0x20000000, Size: 0x00001160, Max: 0x00002000, ABSOLUTE)

    Base Addr    Size         Type   Attr      Idx    E Section Name        Object

    0x20000000   0x00000004   Data   RW          132    .data               port.o
    0x20000004   0x00000038   Data   RW          242    .data               tasks.o
    0x2000003c   0x00000018   Data   RW          453    .data               heap_4.o
    0x20000054   0x00000014   Data   RW         1042    .data               system_stm32f0xx.o
    0x20000068   0x00000004   Data   RW         1379    .data               stm32f0xx_hal.o
    0x2000006c   0x00000004   Data   RW         1891    .data               main.o
    0x20000070   0x000000f0   Zero   RW          241    .bss                tasks.o
    0x20000160   0x00000c00   Zero   RW          452    .bss                heap_4.o
    0x20000d60   0x00000400   Zero   RW            1    STACK               startup_stm32f030x8.o


==============================================================================

Image component sizes


      Code (inc. data)   RO Data    RW Data    ZI Data      Debug   Object Name

       110          0          0          0          0      10100   cmsis_os.o
         0          0          0          0          0      15196   event_groups.o
       388         22          0         24       3072       4151   heap_4.o
       136          0          0          0          0       3326   list.o
       312         24         32          4          0       5947   main.o
       354         58          0          4          0       6840   port.o
        28          8        180          0       1024        744   startup_stm32f030x8.o
        94         18          0          4          0       3010   stm32f0xx_hal.o
       148         22          0          0          0       8126   stm32f0xx_hal_cortex.o
       336         26          0          0          0       2280   stm32f0xx_hal_gpio.o
        28          4          0          0          0        442   stm32f0xx_hal_msp.o
        40         14         16          0          0       1361   stm32f0xx_hal_rcc.o
      1284         40         32          0          0       4146   stm32f0xx_hal_rcc_ex.o
        12          0          0          0          0        442   stm32f0xx_it.o
        92         14          0         20          0     117021   system_stm32f0xx.o
      1192         94          0         56        240      12586   tasks.o
         0          0          0          0          0       3048   timers.o

    ----------------------------------------------------------------------
      4560        344        292        112       4336     198766   Object Totals
         0          0         32          0          0          0   (incl. Generated)
         6          0          0          0          0          0   (incl. Padding)

    ----------------------------------------------------------------------

      Code (inc. data)   RO Data    RW Data    ZI Data      Debug   Library Member Name

         0          0          0          0          0          0   entry.o
         0          0          0          0          0          0   entry10a.o
         0          0          0          0          0          0   entry11a.o
         8          4          0          0          0          0   entry2.o
         4          0          0          0          0          0   entry5.o
         0          0          0          0          0          0   entry7b.o
         0          0          0          0          0          0   entry8b.o
         8          4          0          0          0          0   entry9a.o
        30          0          0          0          0          0   handlers.o
        36          8          0          0          0         68   init.o
        36          0          0          0          0         60   memcpya.o
        36          0          0          0          0        100   memseta.o
        44          0          0          0          0         72   uidiv.o

    ----------------------------------------------------------------------
       204         16          0          0          0        300   Library Totals
         2          0          0          0          0          0   (incl. Padding)

    ----------------------------------------------------------------------

      Code (inc. data)   RO Data    RW Data    ZI Data      Debug   Library Name

       202         16          0          0          0        300   mc_p.l

    ----------------------------------------------------------------------
       204         16          0          0          0        300   Library Totals

    ----------------------------------------------------------------------

==============================================================================


      Code (inc. data)   RO Data    RW Data    ZI Data      Debug   

      4764        360        292        112       4336     196878   Grand Totals
      4764        360        292        112       4336     196878   ELF Image Totals
      4764        360        292        112          0          0   ROM Totals

==============================================================================

    Total RO  Size (Code + RO Data)                 5056 (   4.94kB)
    Total RW  Size (RW Data + ZI Data)              4448 (   4.34kB)
    Total ROM Size (Code + RO Data + RW Data)       5168 (   5.05kB)

==============================================================================

